:020000040000FA
:1000000050060020F100000011010000D5000000A2
:1000100000000000000000000000000000000000E0
:1000200000000000000000000000000015010000BA
:10003000000000000000000017010000DD100000BB
:100040001B0100001B0100001B0100001B01000040
:100050001B0100001B0100001B0100001B01000030
:100060001B010000E11200001B0100001B01000049
:10007000311300001B0100001B0100001B010000E8
:100080001B0100001B0100001B0100001B01000000
:100090001B0100001B0100001B0100001B010000F0
:1000A0001B0100001B0100001B0100001B010000E0
:1000B0001B0100001B0100001B0100001B010000D0
:1000C0000348854600F092F800480047751E00007E
:1000D0005006002004207146084202D0EFF3098048
:1000E00001E0EFF308807146004A10479D0C0000C4
:1000F0000A480B4901600B4901600B4901600B4A3A
:100100000B491160002101600A4880470A480047F6
:10011000FEE7FEE7FEE7FEE7FEE7FEE70001005030
:100120005900000016000000880000002400005064
:10013000A55A000001120000C100000030B50B46B6
:10014000014600202022012409E00D46D5409D42B1
:1001500005D31D469540491B254695404019154637
:10016000521E002DF1DC30BD03460B439B0703D02C
:1001700009E008C9121F08C0042AFAD203E00B786C
:100180000370401C491C521EF9D27047F0B51FB4D1
:100190000646002082B005464024019100901BE0F5
:1001A000019922460F46304600F042F8049A059B1A
:1001B000801A994110D310461946224600F028F8BB
:1001C000361A8F410197224601200021009F00F03E
:1001D0001FF838184D4100902046641E0028DFDCCF
:1001E000019B00982946324607B0F0BD064C012518
:1001F000064E05E0E36807CC2B430C3C98471034CF
:10020000B442F7D3FFF760FF4820000068200000E9
:1002100010B5202A04DB0146203A9140002010BD91
:10022000914020239C1A0346E3401943904010BD9F
:1002300010B5202A04DB0846203AD040002110BD2A
:100240000B46D340D0402024A21A914008431946BF
:1002500010BD00001FB509491EC903946C460EC4A9
:10026000810F8A0069468A58054951184A68C306B1
:10027000DB0E0120984002434A601FBD08200000A9
:1002800000020050F0B507000C46564885B05449AE
:100290000162554E016813D0042211430160102001
:1002A00000F034FA0120C004029050480425039065
:1002B0004F485049201888420DD8002004901CE077
:1002C000012211430160104600F020FA00200225AF
:1002D00003960290ECE7484848492018884203D822
:1002E00001206400049008E045484549201849422F
:1002F000884249D80320A40004900026F643002039
:100300000090019021E029460398FFF717FF3D492F
:100310003D4A4118914217D20222354B01465143C2
:100320005B1CCF185B429F420AD8A14201D90B1B2C
:1003300000E0631AB34203D21E000095019203D07D
:100340003249521C8A42E8D96D1C212DDBD9049810
:100350000299800308430099012249029202891AF6
:1003600008430199891E08431E490862042000F0D1
:10037000CDF904990098491C41430398FFF7DEFE2C
:100380000199484305B0F0BD002F0FD02049154812
:100390000162042000F0BAF91EA000680090114824
:1003A000016A0013014203D00020EBE71A49EEE78F
:1003B000080300D50D4E880301D53046E2E7080456
:1003C000800F6A46105CCA058904C90E891CD20DCB
:1003D0004143B008921C5043FFF7B0FE8000D1E7C4
:1003E0000000010000020050001BB7000080510116
:1003F000FF1E0AFAFFE0F5057F0F05FD7FF0FA0208
:10040000C08782FEFF95E7FFBF77CC0001020000A6
:100410006FD60800010202042EC2000002490A68D9
:1004200002430A60704700000002005010B500F05F
:100430009FFE0148006810BD0000002010B500F0CC
:1004400097FE0148006810BD0000002002480068C7
:10045000C00700D00148704700020050001BB700E1
:1004600004480068800702D50120C00370470020BF
:10047000704700000002005010B500F079FE0148FE
:10048000006810BD0000002008B511A000680090B1
:100490001048016A0013014201D0002008BD080382
:1004A00001D50D4800E00D488A03F7D40A04920FE5
:1004B0006B469B5CCA058904D20DC90E891C800855
:1004C000921C59435043FFF739FE800008BD0000DD
:1004D000010202040002005000805101001BB7001D
:1004E00008B511A0006800901048016A001301428D
:1004F00001D0002008BD080301D50D4800E00D48DB
:100500008A03F7D40A04920F6B469B5CCA058904E0
:10051000D20DC90E891C8008921C59435043FFF725
:100520000DFE800008BD0000010202040002005020
:1005300000805101001BB700F8B52E49CC6810228D
:100540002D4B1440984201D9184603E02B4A9042A3
:1005500000D210462A4A0125904201D9502600E0D7
:100560000026284A926950273A43264FBA610A6802
:1005700004273A430A60CA68D206FCD51D490A69B5
:1005800007273A430A610A6ACF013A430A62C968F7
:10059000C9070ED0984206D141000020FFF772FE35
:1005A000074602250FE001460020FFF76BFE0746D5
:1005B00009E001460120C004FFF764FE07460D482C
:1005C000C468102004400F48816950229143314390
:1005D0008161691E022000F017F8002C04D1054843
:1005E000026804218A43026029463846FFF7A6FDC7
:1005F000F8BD00000002005000A24A0440787D01CE
:1006000080F0FA0200C0005070B5104CE56810266A
:100610002268354004231A432260E268D206FCD5E2
:10062000226907231A432261A269120912010A43AF
:10063000A261216999430143216100F099FD002DD8
:1006400002D12068B043206070BD0000000200505D
:10065000F0B5294B86B01C460834F0CC009401ACB0
:10066000E0C418CB0493430E05945B072DD08300A0
:100670009B0F9B006C46E358204C1B190401650F2F
:10068000C401E40EA5401C68AC430C431C601B4B2A
:100690001B4C103BA04203D1DD69FF24013410E064
:1006A000184CA04207D1DC6901256D02AC432940FA
:1006B0000C43DC6109E0144CA04206D1DD69012441
:1006C000A402A54321400D43DD61830A1906090EEA
:1006D0000FD00103890F890004AC6158074C8005D5
:1006E00008340919DBB2C00E8340086898431043F0
:1006F000086006B0F0BD0000F01F000010020050BE
:100700001400C0571500E0571600406610B50446A7
:100710000749084B05E00A46491E002A01DC002073
:1007200010BDDA6820469043F5D1012010BD0000CD
:10073000804F12000002005070B5204C002022466D
:100740000C320421606100F03FF925460C351C494C
:100750001CA02A6800F098FF2A68042A07D0022A01
:1007600005D01C48824202D0801C824206D113462A
:10077000134919A0226100F087FF70BD0420286092
:100780000E4A014620610C32606900F05FF90C49A5
:100790001EA02A6800F078FF084A04210C32606924
:1007A00000F012F9064925A0226900F06DFF044906
:1007B00025A02A6800F068FF70BD00002C00002012
:1007C000921F000025733A5B305D3A307825303453
:1007D000580D0A000208000025733A526561642032
:1007E000535049206D6F64652072656164793A30B9
:1007F00078253034582C207533325350494D6F646E
:10080000653A3078253034580D0A000025733A4E89
:100810004F5420636F727265637420535049206D8A
:100820006F64652C73657420746F206465666175F0
:100830006C743A3078253034580D0A0025733A30FC
:1008400078253034580D0A0025733A5265616420CA
:100850006D6F64655B305D3A3078253034580D0A31
:10086000000000007CB500F0EDFB00F08BF90221E8
:10087000684600F0AFF9002803DA274927A000F006
:1008800003FF00983F26C007F6020024264D0028EB
:1008900002D10198B04234D024480168102211439B
:1008A00001600098022140084000009001966846CF
:1008B00000F0A8F9002803DA17491DA000F0E4FEB3
:1008C0000221684600F086F90098C00702D101981D
:1008D000B04209D019A000F0D7FE00F031F92C6029
:1008E0000D491EA000F0D0FE1FA000F0CDFE00F0CC
:1008F000E9F90028FBD00520000781680122114397
:10090000816000F079F901461AA000F0BDFE00F008
:1009100017F92C607CBD0000B11F00002573203A40
:1009200020310D0A000000000001005000C00050FE
:100930002573203A20320D0A000000004572726FC4
:10094000723A2050726F6772616D20436F6E6669F4
:1009500067204661696C6564210A00002573203AAE
:1009600020330D0A0000000063686970207265730F
:1009700065740A004461746120466C6173682042AA
:100980006173652041646472657373205B30782500
:100990003038585D0D0A0000F0B500222126094BC1
:1009A0000127940025180C59DE605D609C601F6172
:1009B000BFF36F8F1C69002CFCD1521C802AF0D32E
:1009C0000020F0BD00C00050FEB5174601923F2246
:1009D000D2020E46851800F035FB00F0D3F811491D
:1009E00008680822104308600EE00024A10048199E
:1009F000009100F0CFF8019A0099641C5050F5D096
:100A00003F1D2D1D361F0197042EEEDA054A116891
:100A100008208143116000F093F80349002008602A
:100A2000FEBD000000C0005000010050F8B50E46A9
:100A30003F21C90247180024A500E81900F0AAF8D0
:100A4000641C7051802CF7D3F8BD0000FEB50E4633
:100A50003F21C9021746451800F0F4FA00F092F859
:100A6000344A10680821084310608C01A64215D151
:100A7000E80513D1284600F06BF80CE0394628460B
:100A8000FFF78AFFFF35FF3EFF35FF3EFF37023598
:100A9000023EFF370237A642F0DA3FE0FF21284648
:100AA000490208400190E805C00D009003D10120E3
:100AB0004002864206D23F220198D2021E49801A85
:100AC000FFF7B4FF0121009849020C1AA64200D298
:100AD00034460099009AC917890F891889108E46E3
:100AE000E117890F0020091989108C4608E071462A
:100AF0000B18114982009B005B18BA58401C1A6001
:100B00008445F4DC019800F023F80B490198FFF7C5
:100B100043FF361B2D193F19002EBFD10548016830
:100B200008229143016000F00BF80449002008609E
:100B3000FEBD000000C000504C000020000100502D
:100B400002480168490849000160704700C0005030
:100B50000B492222CA60486001200861BFF36F8FF1
:100B600008690028FCD10868400606D508684022BC
:100B7000104308600020C043704700207047000009
:100B800000C0005002480168012211430160704713
:100B900000C0005006490022CA6048600120086178
:100BA000BFF36F8F08690028FCD188687047000088
:100BB00000C0005006490022CA6048600120086158
:100BC000BFF36F8F08690028FCD188687047000068
:100BD00000C00050F8B50E460746002407E0032089
:100BE000A50000052818FFF7E5FF7851641CB44202
:100BF000F5D30020F8BD00000148406970470000AF
:100C000000C00050F3B581B0074600240F4D18E036
:100C1000A600032000053018B9592122EA60686057
:100C2000A96001212961BFF36F8F29690029FCD1D7
:100C3000FFF7C0FFB959884202D00020C043FEBD73
:100C4000641C02988442E3D30020FEBD00C0005023
:100C500010B505200007416B102291434163416BA1
:100C6000416301221021024800F004F810BD000089
:100C700040400050F0B5002301273C469C400C4208
:100C800008D005685C000326A640B5431646A6407A
:100C9000354305605B1C102BEFD3F0BD044603A069
:100CA00000F0F2FC204601F0FDF8FEE7496E204816
:100CB000617264204661756C742048616E646C6575
:100CC000720A000002488069C000C00F704700002F
:100CD000000005408168092291438160704700004F
:100CE00038B5134C2269022A0AD0042A05D01148CB
:100CF000101816D0022807D116E00F490FA001E006
:100D00000D4915A000F0C0FC1A48009022691A4C49
:100D100008230021204600F04DF82046FFF7DAFFB7
:100D200038BD054915A0EDE703491BA0EAE700001F
:100D30002C000020FEF7FFFFA81F000025733A5388
:100D4000455420535049206D6F646520303A307807
:100D5000253034580D0A000025733A53455420536A
:100D60005049206D6F646520313A30782530345811
:100D70000D0A0000A08601000000034025733A53CD
:100D8000455420535049206D6F646520323A3078C5
:100D9000253034580D0A000025733A53455420532A
:100DA0005049206D6F646520333A307825303458CF
:100DB0000D0A0000F8B5069E0D460446202B00D112
:100DC0000023D800284310432060E06B0121C907AD
:100DD0000843E063FFF732FB00223D490746002D40
:100DE00008D01020A0608C426AD13A494B69034375
:100DF0004B616AE00020A060354884423548406974
:100E000001D1C00600E08006002801DA3D4602E07C
:100E1000FFF766FB0546BE420FD32D4884422D489E
:100E200004D1426910210A43426103E04169202252
:100E3000114341610020606048E0AE4203D30020CE
:100E400060602846F8BD002E28D00A202F46474370
:100E500031463846FFF772F90A21401DFFF76EF957
:100E6000401EFF2824D9E06B40004008E063710079
:100E70003846FFF763F90A21401DFFF75FF9401E6E
:100E8000FF2800D9FF206168090A09020143616057
:100E900041002846891CFFF751F9F8BDE06B40007E
:100EA0004008E0636068FF2108436060680AF8BD9D
:100EB0006168090A090201436160411C2846EAE7AA
:100EC0000448416920231943416162603846F8BDF6
:100ED00000000340000200507CB5002600965A2115
:100EE0006A4601961170134D517028789070D67033
:100EF0001671401C507191713446D171012000F07F
:100F0000C1F80D4B1E600D486E460121325D026234
:100F100002680A4302600268D207FCD1641CE4B292
:100F2000082CF3D31960002000F0ACF82878401C9E
:100F300028707CBD2C00002080420050000003403F
:100F4000052109074A6802434A60704705200007E7
:100F50004068704710B500F065F80420FFF75EFAAE
:100F60001020FFF7D3FB00210720FFF74DFB1E48A1
:100F7000FFF7E2FA1D4C2046FFF76CF9032100222F
:100F800009062046FFF764FB194C2046FFF762F97B
:100F90000721002209032046FFF75AFB154C0022C7
:100FA00010212046FFF754FB2046FFF753F9052098
:100FB0000007826B0E218A438263826B0A4382633D
:100FC0000D490A690A610A690A61416B8908890049
:100FD0004163416B03221143416300F0C9F80649A4
:100FE0000020C031086010BD00A24A04103D8057A7
:100FF0000300C05E0C004052400000500520000776
:10100000816801221143816070470521020E0907A2
:1010100051188B680122824013438B60886890438B
:101020008860704710B5592116230548882202E0D0
:101030000160036002600468012CF9D110BD00005A
:101040000001005010B5592116230548882202E0FE
:101050000160036002600468012CF9D110BD00003A
:101060000001005006498A691202FCD408600A286F
:1010700004D188690002FCD40D200860704700008C
:1010800000000540052210B512070823104900286A
:101090000CD0012809D1906B98439063906B184352
:1010A0009063086908610869086110BD094C012056
:1010B000E060906B98439063906B9063086908615F
:1010C00008690861012208210348FFF7D3FD10BD1C
:1010D00040000050804200508040005000B500F0B9
:1010E00035FF03494868401C00D1486000BD00003E
:1010F0002C00002010B5124B00225A600146114806
:101100000068FFF71BF81049884201D9012010E060
:101110000102090A0D48491E41610D490722CB69A8
:101120001B021B0A44042343CB610021816102613D
:101130000846002803D007A000F0A6FAFEE710BD7D
:101140002C00002000000020FFFFFF0000E000E076
:1011500004ED00E05365742073797374656D207439
:1011600069636B206572726F7221210A00000000B2
:1011700038B51DA000681D4C0090216A2013014263
:1011800001D0002016E0080301D5194800E01948F5
:101190008A030FD40A04920F6B469B5CCA0589042C
:1011A000D20DC90E891C8008921C59435043FEF78A
:1011B000C5FF8000104DA86021694907490F022929
:1011C00003D0880029460C310858A1690907090F86
:1011D000491CFEF7B3FF094928604A108018FEF742
:1011E000ADFF686038BD000001020204000200503B
:1011F00000805101001BB7000000002040420F009A
:101200007047000010B50A4C7D220121D200C906AA
:10121000204600F045F820682106084320600815A4
:1012200004490860206889050843206010BD00005B
:101230002000014000E100E010B588B00446202203
:1012400012496846FEF790FF114912488C4202D1BC
:101250004069000A0DE00E4920318C4202D14069FC
:10126000000B06E00C4940698C4201D1000C00E003
:10127000000D4007400F022804D08000694608583E
:1012800008B010BD05480068FAE7000028200000FB
:10129000000001400002005000001140000000204A
:1012A000F7B517460646FFF7C7FF05460024400876
:1012B000B84201D2022008E039462846FEF73EFF38
:1012C000040E02D0611CFEF739FF01992143316001
:1012D0007060641C604301462846FEF72FFFFEBD88
:1012E00070B511488168C907C90F1CD001268660F6
:1012F00000F034FE0D4DA8687D21C900FEF71EFFE9
:101300002C461834002902D1206830432060A86898
:10131000FF21F531FEF712FF002903D120680221D9
:1013200008432060A86870BD200001402C00002008
:1013300010B5064CE069FF211131084202D110BD01
:1013400000F0D8F8A0694004FAD510BD00000540AF
:1013500010B51848FFF759FE174CE1214902204605
:1013600000F084F81121204600F068F801201349AC
:1013700000030860FFF75AF8014611A000F084F955
:10138000FFF75CF8014615A000F07EF9FFF75EF864
:10139000014618A000F078F9FFF762F801461BA09B
:1013A00000F072F9FFF768F801461EA000F06CF932
:1013B00010BD0000100000040000054000E100E046
:1013C0000D0A434C4B5F4765744350554672657137
:1013D000203A202538640D0A00000000434C4B5F82
:1013E00047657448434C4B46726571203A20253856
:1013F000640D0A00434C4B5F47657448585446726D
:101400006571203A202538640D0A0000434C4B5F7B
:101410004765744C585446726571203A20253864EB
:101420000D0A0000434C4B5F47657450434C4B46DC
:10143000726571203A202538640D0A0042680A431B
:101440004260074B012212030649984201D10A600B
:101450007047054B9842FAD101204003086070475D
:101460000000054000E100E000001540F0B5044632
:101470001C480D460FC885B06E460FC61A48416914
:1014800080698A010321960F0005070F0020206361
:10149000E160A06815490840A060012E02D1FEF766
:1014A000F3FF0190002D1BD0B10068464058791C15
:1014B000FEF744FE0646690840182946FEF73EFE40
:1014C0000B49801E884207D9E90070182946FEF7AB
:1014D00035FE0009801E02E003210907084360620F
:1014E00005B0F0BDC01F0000000200500FFFF0FF6C
:1014F000FFFF000010B519480068C4B27F2C03D963
:1015000017A000F0C1F810BD21461AA000F0BCF8E9
:10151000582C12D00BDC1B48302C13D0312C14D09B
:10152000322C17D0332CEED1202201680FE05A2C38
:1015300003D0782C01D07A2CE5D1FFF773FDFFF7AB
:101540005DFD10BD0422016801E00168082211431D
:10155000016010BD10220168F9E70000000005409D
:10156000696E76616C696420636F6D6D616E640D88
:101570000A0000007072657373203A2025630D0A1B
:10158000000000004400002070B51D4E05460020FC
:1015900032460C3204217061FFF716FA294619A071
:1015A00000F072F834460C342268AA4204D11B4978
:1015B0001BA000F069F870BD114A25600C320421AF
:1015C0007069FFF743FA15491EA0226800F05CF825
:1015D0000B4A04210C327069FFF7F6F90F491FA07E
:1015E000226800F051F824A000F04EF825488169E7
:1015F000C900FCD5FFF716FDFFF700FD70BD000028
:101600002C000020746172676574206D6F64653A08
:101610003078253034580D0A000000007C1F00008F
:1016200025733A52656164206D6F6465284E4F20C2
:101630006368616E676529203078253034580D0A5B
:101640000000000025733A5772697465206D6F645D
:1016500065203078253034580D0A000025733A5241
:10166000656164206D6F64655B305D3A307825306C
:1016700034580D0A000000007265626F6F740D0A25
:1016800000000000000005400FB410B503A9044B92
:10169000044A029800F018F810BC08BC04B01847BF
:1016A000E11D00004800002002E008C8121F08C128
:1016B000002AFAD170477047002001E001C1121FD3
:1016C000002AFBD170470000FFB591B00F460546D8
:1016D000002606E025280AD0149A139990476D1C1D
:1016E000761C28780028F5D1304615B0F0BD0024CE
:1016F00000940121F34A029400E004436D1C2B780E
:101700000846203B98401042F7D128782A280ED06E
:10171000022128780246303A092A15D8009A0A236D
:101720005A43303A80180C436D1C0090F1E701CF0A
:101730000090002805DA012040030443009840424D
:101740000090022004436D1C28782E2815D1042017
:10175000044368786D1C2A280AD101CF6D1C0290C1
:101760000BE002990A225143303940186D1C029057
:101770002878014630390929F3D928786C2810D007
:1017800006DC4C281AD068280ED06A2817D104E04D
:10179000742813D07A2812D110E0012040050443A8
:1017A0000CE00121090501E0032109050C436978DA
:1017B000814203D10120000524186D1C6D1C28787E
:1017C00003906E281ED00CDC632831D004DC002886
:1017D0008AD0582811D1B2E064287BD069280CD176
:1017E00078E073282DD004DC6F2870D0702804D1E5
:1017F000A7E075286CD078286BD0149A139990477D
:10180000761C62E06002400F022807D003280AD04D
:10181000042838680AD006603F1D56E03868F11782
:1018200006604160F8E738680680F5E70670F3E780
:101830003878694608740020487404A80390012091
:1018400003E0386803900020C0433F1D61070FD5B7
:10185000002101E00199491C029A0191914213DA99
:101860008142F7DB019A0399895C0029F2D10BE0F0
:10187000002101E00199491C01918142FADB019AA2
:101880000399895C0029F5D101990098139A401AAF
:1018900000902146149B00F03BF9019980194618ED
:1018A00007E0039803990078491C0391149A13994F
:1018B00090470198401E0190401CF2D12146149B94
:1018C000139A009800F014F986196D1C09E741E09D
:1018D00033E034E00A200021049005916002410FBA
:1018E000022905D001CFC2179446032905D007E08D
:1018F000FF1DFF08FF0003CF06E000B2C2179446A9
:10190000042902D140B2C1178C4600226146944599
:1019100006DA0A460021404291418C462D2102E020
:10192000210504D52B216A461176012103E0E10748
:1019300001D02021F7E7019154E00A200BE01020AC
:1019400009E01020049000210420044308200591A0
:10195000029003E008200021059104906002410FED
:10196000022905D001CF00229446032906D006E0C3
:10197000FF1DFF08FF0003CF8C4603E080B204295F
:1019800000D1C0B20021019121072BD50399702904
:1019900006D0049A1021059B4A401A4305D00EE058
:1019A00040216A461176012108E06146014306D0D4
:1019B00030216A4611760399517602210191049AE9
:1019C0000821059B4A401A430CD16146014301D1CD
:1019D000610707D530216A461176012101910299EC
:1019E000491E02910399582904D037A103910FA9E8
:1019F0000F910DE039A1F9E76146059B049AFEF7C6
:101A0000C5FB039B8C469B5C0F9A521E0F92137072
:101A100061460143F0D10F9807A9081A20300390BE
:101A2000600704D5012000048443029801E00120EE
:101A300002900399884201DD401A00E0002041181D
:101A40000290019809180098401A0090E00306D40B
:101A50002146149B139A009800F05AF8861900202A
:101A6000049008E006A9085C149A1399904704981A
:101A7000401C761C049001998842F3DBE0030CD5EE
:101A80002146149B139A009800F042F8861904E04E
:101A9000149A302013999047761C0299481E0290A0
:101AA0000029F5DC08E00F980F990078491C0F9188
:101AB000149A13999047761C0399481E03900029A5
:101AC000F1DCFBE60928010030313233343536379A
:101AD000383961626364656600000000303132337A
:101AE000343536373839414243444546000000001A
:101AF000F8B5044600251E461746880404D405E0C0
:101B000039462020B0476D1C641EF9D52846F8BD23
:101B1000FFB50446002581B01E46C80301D5302715
:101B200000E02027880404D505E038460399B04733
:101B30006D1C641EF9D5284605B0F0BD10B5FFF741
:101B400005FA0446052000074168FF221143416061
:101B5000214630A0FFF798FDE00702D033A0FFF741
:101B600093FDA00702D537A0FFF78EFD600702D5D1
:101B70003BA0FFF789FD200702D541A0FFF784FDB8
:101B8000E00602D545A0FFF77FFDA00602D54CA0D8
:101B9000FFF77AFD600602D54EA0FFF775FD20061F
:101BA00002D550A0FFF770FDE00704D00120FFF739
:101BB000C7F951A028E0A00704D50220FFF7C0F91B
:101BC00052A021E0600704D50420FFF7B9F956A020
:101BD0001AE0200704D50820FFF7B2F959A013E056
:101BE000E00604D51020FFF7ABF95DA00CE0A006DD
:101BF00004D52020FFF7A4F960A005E0200607D552
:101C00008020FFF79DF965A0FFF73EFD002010BD85
:101C100069A0F9E7526573657420536F7572636547
:101C2000203C3078253038583E0D0A003029506F5E
:101C30007765722D4F6E20526573657420466C6116
:101C4000670D0A00312952657365742050696E2052
:101C5000526573657420466C61670D0A00000000D0
:101C600032295761746368646F672054696D6572C7
:101C700020526573657420466C61670D0A00000090
:101C800033294C6F7720566F6C74616765205265FD
:101C900073657420466C61670D0A00003429427236
:101CA0006F776E2D4F7574204465746563746F7221
:101CB00020526573657420466C61670D0A00000050
:101CC000352953595320526573657420466C6167FA
:101CD0000D0A0000362952657365727665642E0D13
:101CE0000A0000003729435055205265736574205F
:101CF000466C6167200D0A00706F776572206F6E09
:101D00002066726F6D20504F520D0A00706F77651C
:101D100072206F6E2066726F6D206E52455345546F
:101D20002070696E0D0A0000706F776572206F6E0B
:101D30002066726F6D205744542052657365740D90
:101D40000A000000706F776572206F6E2066726FF8
:101D50006D204C56522052657365740D0A000000C8
:101D6000706F776572206F6E2066726F6D20424FC4
:101D7000442052657365740D0A000000706F77652A
:101D800072206F6E2066726F6D2053797374656D6B
:101D90002052657365740D0A00000000706F77654E
:101DA00072206F6E2066726F6D20435055207265F1
:101DB0007365740D0A000000706F776572206F6E96
:101DC0002066726F6D20756E68616E646C6520723E
:101DD0006573657420736F757263650D0A0000008A
:101DE00000B50346FFF73EF9184600BD10B51E4882
:101DF00040681D4C18342068C10707D040084000D7
:101E000020601A4801690122514001612068810760
:101E100004D5022188432060FFF75EF8206841075F
:101E200005D50421884320600846FFF7ADFB2068F4
:101E3000010705D50821884320600220FFF7A4FB95
:101E40002068C10605D51021884320600848FFF7A7
:101E50009BFB2068810606D520218843206004482A
:101E6000801CFFF791FB10BD2C0000204042005069
:101E700002080000FFF76EF8FEF7EAFEFFF768FAC7
:101E8000FFF7C0F9FFF75AFE7D20C000FFF732F9D7
:101E9000FEF7E8FCFEF750FCFEF722FFFFF7A6FF77
:101EA000FCE7000010B50446016810A0FFF7ECFB4A
:101EB00011A06168FFF7E8FB12A0A168FFF7E4FB3F
:101EC00013A0E168FFF7E0FB14A02169FFF7DCFB3A
:101ED00015A06169FFF7D8FB16A0A169FFF7D4FB35
:101EE00017A0E169FFF7D0FB10BD00007230202081
:101EF0003D20307825780A00723120203D2030784E
:101F000025780A00723220203D20307825780A009A
:101F1000723320203D20307825780A00723132203B
:101F20003D20307825780A006C7220203D203078E2
:101F300025780A00706320203D20307825780A003B
:101F4000707372203D20307825780A00024841687D
:101F5000491C4160704700002C0000200548816842
:101F6000491C81608168044A914201D3002181604B
:101F7000704700002C00002060EA0000577269746E
:101F8000655F5350495F4D6F64655F5265636F7263
:101F90006400436865636B5F5350495F4D6F6465D0
:101FA0005F5265636F7264005350495F496E697494
:101FB0000044617461466C617368496E6974000025
:101FC000001BB7000000000000000000008051016D
:101FD000001BB7000000000000000000008051015D
:101FE000001BB7000000000000000000008051014D
:101FF00000000000200000000000000004000000BD
:102000000C0000002400000000000000040000009C
:102010002C00000000000000000000000400000090
:102020002C00000000000000001BB7000080000032
:102030000000000000000000000000001027000069
:102040000000000000805101682000000000002016
:102050004C000000A8160000B42000004C00002036
:1020600004060000B816000080F0FA0232000000FA
:1020700080F0FA02001BB7000080000080F0FA0236
:102080001027000000000000000000000000000019
:10209000008051010000000000000000000000006E
:1020A0000000000000000000000000000000000030
:0420B000000000002C
:04000005000000F106
:00000001FF
